:041123004140AE0297
:100B67009040AEE0FF75F015A4248CF582E4344084
:100B7700F58322EF75F015A4248DF582E43440F552
:100B870083E02408F9E4FAFB229040AEE0FF75F019
:100B970015A42490F582E43440F583E0FD7C00221F
:100BA7009040AEE075F015A42491F9744035F0A893
:100BB70001FC7D012275F015A42486F582E43440FA
:100BC700F583EEF0A3EFF022EF75F015A4248EF570
:100BD70082E434402225E025E024AFF582E4344066
:100BE700F583E0FEA3E022E0FD75F015A42484F56B
:100BF70082E4344022E075F015A4248AF582E434B7
:100C0700402275F015A42488F582E4344022FE9032
:100C17004070E07A002FFFEA3EFEED229040CFE0E1
:100C2700FBA3E0FAA3E0F902010425E025E024B2E2
:100C3700F582E43440F583229040D2E0644022906C
:100C470040D3E0FEA3E0FFA3E0FD2225E025E0245A
:100C5700AFF582E434402225E025E024B1F582E4B3
:0E0C6700344022FD7C00E0FEE42DFFEC3E2236
:0417D600AA06A905B1
:1017DA00E4F518EAF5198F1B7E097FAE8F828E8396
:1017EA0074082FFFE43EFEA3E493F51CA3E493F5EB
:1017FA001AE51CB4FF08E51AB4FF037FFF22E51CB3
:10180A00B51B0EE51AB51909A3E493B50103AF1880
:0A181A00220518E518B4FFC47FFF93
:0118240022A1
:081683009040DAEEF0A3EFF055
:10168B00E4FFA3740BF0A37426F09040DCE0FAA304
:10169B00E0F5828A83E493FA740193FBBAFF06BBED
:1016AB00FF037FFF229040DAE0B50215A3E0B503FC
:1016BB0010A3E0FAA3E0F5828A83740293B50501C7
:1016CB00229040DDE02405F09040DCE03400F00F88
:0616DB00EFB4FFB67FFF33
:0116E10022E6
:10182500C374049D25E025E044439040C5F0ED14C4
:10183500FFC3EF648094804020120104FEEFFD3366
:1018450095E0FC74C92DF58274403CF583EEF07487
:101855000129F9E43AFA1F80D87E407FC2120D5F54
:0C186500EF70077F017E88121CD67F0107
:011871002254
:0616E2009040DA12029DA7
:1016E8009040C57480F0E4FB9040DAA3A3A3E0FF28
:1016F80074C92BF582E43440F583EFF09040DAE0CA
:10170800FCA3E0FDA3E0FEA3E0FF780812027790B7
:1017180040DA12029D0BEBB404CE7E407FC2120D5C
:0B1728005FEF70077F017E88121CD667
:011733002293
:0B049A009040CFEBF0A3EAF0A3E9F0E4
:1004A50012010454E09040D2F090000212011DFFA9
:1004B5009040D3E4F0A3EFF090000112011D9040AD
:1004C500D4120C6A9040D3F0A3EFF0900003120110
:1004D5001DFF9040D5F090000112011D9040C6F01F
:1004E50090000212011D9040C7F0A3EFF09040D29A
:1004F500E0FF64406008EF64206003020702120C0D
:10050500461216839040D6EFF0F470030205D3E04F
:1005150075F005A42426F582E5F0340BAF829040F2
:10052500D8F0A3EFF0120C3F70249040D8E0FEA362
:10053500E0FFF5828E8374039330E40F7404931205
:100545000B89740393540FFD0218250205CA9040C8
:10055500D8E0FEA3E0F5828E83740393FF30E56552
:10056500120C23540C1313543FFEC374049EFE90C7
:1005750040D7F0EF540F6E60097F107E007D0702B3
:1005850006E49040D7E0D394004026E014F0E0FF65
:1005950024BEF582E43440F583E0FE9040D8E0FCCB
:1005A500A3E0F5828C837404932F2408F8A60680B3
:1005B500D19040C5746012072C70077F087E8812A1
:1005C5001CD67F01227F007E007D010206E4120C0D
:1005D500461217D69040D6EFF0C394FF503D120C4B
:1005E5003F702F9040D6E075F008A424AEF9740949
:1005F50035F0FA7BFF78C57C407D017E007F0812CF
:1006050000DE7E407FC2120D5FEF70031207247F6C
:1006150001227F027E007D010206E49040D3E06462
:10062500107004A3E06401702C9040D5E070261290
:100635000C3F70189040C5744FF0904083E0904097
:10064500C912072C70031207247F01227F027E0046
:100655007D010206E49040D3E064107004A3E064D9
:100665001760030206E89040D5E07077120C3F70E2
:10067500219040C5744BF0904074E0FEA3E090409B
:10068500C9F0EE12071970077F027E88121CD67F0B
:100695000122120C23642B704090000512011DFFEE
:1006A500904074E4F0A3EFF090000412011D904017
:1006B50075120C6A904074F0A3EFF09040C5746019
:1006C500F0E49040C9F0A3F0A3F012071970077F7A
:1006D500027E88121CD67F01227F007E007D017C70
:1006E50006802A9040D5E07006FFFE7D0280067FD9
:1006F500117E007D097C061216E27F00229040D211
:10070500E064807F01600C7E007D047C051216E2AA
:030715007F002240
:1007180022A3F07E407FC2120D5FEF227F027E8807
:0E072800121CD622F07E407FC2120D5FEF221F
:10147200E49040CFF09040CFE0FFC3940250491275
:101482000BCF120BE74E60379040CFE0120B95C0A6
:1014920004C005120B7AC0019040CF120BAAD001F2
:1014A200D007D0061200DE1214D1E0FD120BBCED03
:1014B200120B6C7402F01214D1120BFC120BC790B7
:0E14C20040CFE004F00214779040AE7402F0C8
:1014D00022121CCDEF24FEFFEE34FFFE9040CF22FF
:101734009040CFEFF0120B6C7401F0121CCD90406E
:10174400CFE0FD120C09F583E0FAA3E0120C1C12A1
:101754000BFD120BC7121CCD9040AE120BEEF5839D
:10176400E0FAA3E0120C1C120BBC9040CFE0120B69
:10177400D0AF82FE120D5FEF70077F017E88121CCE
:02178400D6226B
:0B0F08009040CFEEF0A3EFF0A3EDF05F
:100F1300E0FF904070F0E4A3F09040CFE0FDA3E049
:100F2300904072CDF0A3EDF0AD03A3EAF0A3EDF092
:100F3300E42FFEE43407904078F0A3CEF0A37401CD
:100F4300F0E4A3F0904083F0904070E02480FEE44E
:100F530034059040C2F0A3CEF0A37408F0E4FF126E
:100F63000BCFF583E4F0A3F00FEFB402F2E4FFEF4D
:100F7300120C52F583E4F0A3F00FEFB402F19040AA
:100F8300CFE0FEA3E0FF1211CAEF70077F027E8855
:100F9300121CD6E4FFFE1218FFEF70077F037E8852
:100FA300121CD69040D1E02400FFE43406FE121850
:100FB300FFEF70077F037E88121CD69040AE74FF4C
:010FC300F03D
:010FC400220A
:10107B009040D0ECF0A3EDF0A3EBF09040CFEFF06D
:10108B00C394014016E0D394025010904070E0FFDF
:10109B00C394014006EFD3947F40077F047E8812F0
:1010AB001CD69040D3E0C3941040077F047E891276
:1010BB001CD69040CFE014F09040D2E0FF9040CF90
:1010CB00E0FE120C5EF583EFF09040D3E0FFEE12E2
:1010DB000C31EFF09040D0E07002A3E07012904022
:1010EB00CFE0FDFEE42400FFEE3402120C15800C61
:1010FB009040D0E0FEA3E0FF9040CFE0120C5212E4
:10110B000BC79040CFE0120BDCFF1218FFEF7007FC
:08111B007F057E88121CD6221C
:100C75009040D0ECF0A3EDF0A3EAF0A3EBF09040A8
:100C8500CFEFF0C39401403AE0D394025034904042
:100C950070E0FFC39401402AEFD3947F5024904025
:100CA500D6E0FFC39401401AEFD394085014904046
:100CB500D2E07002A3E070119040D4E07002A3E08E
:100CC50070077F067E88121CD69040D7E0C394102B
:100CD50040077F067E89121CD69040CFE014F0A312
:100CE500E07002A3E070129040CFE0FDFEE42480A6
:100CF500FFEE3401120C15800C9040D0E0FEA3E00D
:100D0500FF9040CFE0120BD0120BC79040D6E0FF0A
:100D15009040CFE0FE75F015A42490F582E43440B0
:100D2500F583EFF09040D7E0FFEE75F015A4248D24
:100D3500F582E43440F583EFF09040D2E0FEA3E085
:100D4500FF9040CF120BEE120BC79040D4E0FEA3EC
:0A0D5500E0FFED120C09120BC7229B
:10073600E49040CEF09040AEE0F4701F12098E7E39
:10074600407F78120D5FEF70077F017E88121CD6FE
:100756001209A49040AE74020207EA7E407FB712E7
:100766001CACEF700302084C9040B7E07002A3E0A7
:100776007046904070E0FF9040BBE0FE6F6003EE75
:1007860070369040BAE024FE60132482601714602D
:100796001C14601E2481701D1209A4801890407BD1
:1007A6007404F0801090407B747FF080081200097A
:1007B60080031214E07F012290407BE064046028ED
:1007C600904070E02400FFE43406FE9040B7E0B5A8
:1007D6000616A3E0B507117B017A4079BA12049A8E
:1007E6009040CDEFF07F012290407BE0640570568B
:1007F6009040CDF09040CDE0FFC394025048EF12F8
:100806000BDCFF9040B7E06E7003A3E06F702F9093
:1008160040CDE0FF120C5E120BA0AE04C005EF1235
:100826000C31E02408F9E4A801FD7B017A4079BA8D
:10083600D0071200DE9040CD7402F0A314F0904071
:10084600CDE004F080AE90407BE0640560030209D1
:10085600569040AEE004F0E0C394024002E4F0900B
:1008660040AEE0FF120BD0F583E0FCA3E04C700332
:10087600020956EF120BF0120BE74E60399040AEAC
:10088600E075F015A42486F582E43440120BE7FFE8
:10089600121983EF6020120B90C004C005120B7A68
:1008A600C001120BA7D001D007D0061200DE90407F
:1008B600AEE0FF0209469040AEE0FF120C09F58358
:1008C600E0FCA3E04C7003020956EF120B6CE0D378
:1008D600940040239040AE120BFC120BE7FF121956
:1008E60083EF600A120B67E0B4020C0209469040DF
:1008F600AEE0120B6CE4F0120B67E0C394025050AA
:100906009040AEE0FE120B95C004C005EE120B7BC4
:10091600C001EF120BABD001D007D006120460EF76
:10092600602E120B90C004C005120B7AC001120B88
:10093600A7D001D007D0061200DE120B67E07006C2
:100946001217347F01229040AEE0120B6C7402F055
:10095600904074E07002A3E06028904076E0FEA329
:10096600E0FF121983EF601A7E407F78120D5FEF69
:1009760070077F017E88121CD612098E9040CE74B5
:0709860001F09040CEE0FFFC
:10098D0022121CCD904075E02FFF904074E03E90F8
:10099D004076F0A3EFF02290407B7405F0121472B4
:0109AD002227
:08112700021D000041413800E7
:1018B90074FFF0A374E0F0A374FFF0A374E0F0A345
:1018C90074FFF0A374E0F0A374FFF0A374E0F0A335
:1018D90074FFF0A374E0F0A374FFF0A374E0F0A325
:1018E90074FFF0A374E0F022A42440F582E5F034FB
:0618F900FDF583EFF02273
:081CAC009040CFEEF0A3EFF031
:021CB4007F00AF
:011CB600220B
:080D5F009040DEEEF0A3EFF07E
:100D67009040DEE0FEA3E0FFF5828E83A3A3E09030
:100D770040E4F08F828E83E0FEA3E0FFE4FCFD9069
:100D870040E012029D9040E0A3A3E0FEA3E054F8E8
:100D9700FFEE5407FEE4FDFC78031202779041381A
:100DA700E075F0021218F19040E0A3A3A3E0540706
:100DB700FFE4FEFDFC780512028AA905AA06AB0727
:100DC700A3E0FFEB4FFF904138E075F002A4244108
:100DD7001218F49040E4E0FFEFD394004038EF247A
:100DE70002FDE433FC9040DEE0FAA3E02DF582EA51
:100DF7003CF583E0FE904138E075F008A4247FF5C8
:100E070082E5F034FDF583E5822FF582E43583F53D
:100E170083EEF01F80C2904138E0FF7401A80708F5
:0C0E27008002C333D8FC90FD08F07F016E
:010E3300229C
:081CCD00C2AFAF1EAE1DD2AF85
:011CD50022EC
:10198300C2AFAD1EAC1DD2AF0FBF00010ED3ED9F92
:10199300EC9E400FED9FEC9EC3948050037F012289
:1019A3007F0022C3EF9DFFEE9CFED3EF9400EE94E5
:0819B3008040037F01227F0048
:0119BB002209
:03000B00021C05CF
:101C0500C0E0C28C758CF9758A8ED28C051EE51ED6
:071C15007002051DD0E03252
:1011CA00E490FD1004F090FD0274D8F090FD12E452
:1011DA00F090FD11F090FD0AF090FD04F0A3F0A349
:1011EA00F0A3F090FD007434F0A37441F090FD0375
:1011FA007409F090FD2874FFF090FD2AF090FD40EC
:10120A001218E390FD8F74AAF090FD8E7411F0907D
:10121A00FD8D7422F090FD8C7433F090FD8B744434
:10122A00F090FD8A7455F090FD897466F090FD88FF
:10123A007477F090FD441218B9A31218B990FD10F2
:10124A00E4F0C28C438901758CF9758A8ED28CD2EE
:02125A00A9FFEA
:01125C00226F
:1018FF00AD07AC06904138E0FBD3940E40037F0058
:10190F0022EDAE047803CEC313CE13D8F9FF75F0D2
:10191F0002EB1218F1AE04ED7805C333CE33CED8F7
:10192F00F9FF75F002EBA424411218F4904138E04E
:05193F0004F07F01220D
:101C5D005349454D454E532020484F54004461741F
:031C6D00613A00D9
:10112F004840000F0F0F0F0F0F0F0F484008070712
:10113F0007070707070748401003030303030303C9
:10114F00034840180101010101010101484020102D
:10115F0010101010101010484028181818181818D0
:10116F0018184840301C1C1C1C1C1C1C1C484038E8
:10117F001E1E1E1E1E1E1E1E4840401F1F1F1F1F0D
:10118F001F1F1F484048000000000000000048409B
:10119F00501F1B110A1B1B1B1F4840581F1B1B1BDB
:1011AF000A111B1F4840601F040404000000004880
:0A11BF004068111B1511000000002C
:100FC5009040CDE0FCA3E0FDA3E0FEA3E024FFFFFD
:100FD500EE34FFFEED34FFFDEC34FFFC9040CD0216
:100FE500029D04FD121BEB904126E0FBA3E0FAA352
:100FF500E022EBF0A3EAF0A3E9F022E4FFFEFDFC1A
:101005009040CDE0F8A3E0F9A3E0FAA3E0FBD3021A
:101015000266E0FBA3E475F00112016CA9F0FA1277
:101025000104FF22F9A3E0FF3395E0FEE92FF9EA79
:101035003EFA22F9A3E0FF3395E08F82F58322FD86
:101045003395E0FC74FF2DF58274FF3CF583229007
:10105500410EE0FCA3E0FDA3E0FEA3E0FF22EB844C
:10106500243090FF80F022E004F0E0C364802290F9
:06107500FF007430F022C0
:100E34009040CD1202A9000000D212100040051209
:100E44000FC580F61210749040CD1202A900000064
:100E5400321210004005120FC580F6121074904033
:100E6400CD1202A9000000051210004005120FC5A2
:100E740080F6121074121CB740FB90FF007438F017
:100E8400121CB740FB90FF007408F0121CB740FB23
:100E940090FF007401F0121CB740FB90FF00740631
:100EA400F0121CB740FB90FF00740CF07B017A40F9
:100EB4007900E4FF121A227A4079087F01120F00A8
:100EC4007A4079107F02121A227A4079187F03122D
:100ED4000F007A4079207F04121A227B017A40792C
:100EE400287F05121A227B017A4079307F06121A74
:0C0EF400227B017A4079387F07021A2225
:080F00007B01121A227B012281
:0B1CB70090FF40E030E702D322C32280
:0C1C7000121CB740FB90FF007401F02232
:0C1C7C00121CB740FB90FF007402F02225
:101A5200EF700C121CB740FB90FF00740CF022EFE9
:101A6200B4010C121CB740FB90FF00740EF022EF81
:0F1A7200B4020B121CB740FB90FF00740FF02260
:10194400EF700C121CB740FB90FF007410F022EFF4
:10195400B4010C121CB740FB90FF00741CF022EF82
:10196400B4020C121CB740FB90FF007418F022EF75
:0F197400B4030B121CB740FB90FF007414F02259
:101C1C00121CB740FBED6006EF2440FF8000EF4440
:061C2C008090FF00F02291
:101BEB00121CB740FBEF24FE600804700CED247F41
:0A1BFB008003ED24BF90FF00F022EC
:1019F100121C1C121CB740FB75F064121063EB75CE
:101A0100F06484ABF0121CB740FB75F00A1210634E
:101A1100EB75F00A84ABF0121CB740FBEB121065BA
:011A210022A2
:06162100904109120FF7D1
:1016270090410D7401F0904109120FEFF9A3E0907A
:101637004115F0121400E4FF90410CE014C36480DC
:10164700F8EF6480985034904109120FEFF9EFFDDD
:101657003395E08D82F58312011DB4301690410D4C
:10166700E0B40114EF3395E08D82F5837420120105
:0B1677004A8005E490410DF00F80BD9B
:011682002245
:0C14000090410E12029D904112120FF755
:10140C00A3E0A3F0904116E0D364809480404AE4BA
:10141C007B0AFAF9F81210541201BEEB2430FF903B
:10142C004116E0FD3395E0FCED24FFFDEC34FFFCB0
:10143C00904112120FEFF98D828C83EF12014A1238
:10144C001054E47B0AFAF9F81201BE90410E120214
:10145C009D904116E014F080AB904112120FEF12E8
:06146C001038E402014A01
:08154D00904117EEF0A3EFF04E
:1015550090411CE0A3F090411DE0FFD3648094808E
:021565004048FC
:10156700904118E0540F90411EF0D3648094895045
:101577000BE02430FEEF121044EE800F90411EE086
:101587002437FF90411DE0121044EF12014A9041A9
:1015970017E0C4F854F0C868F0A3E0C4540F48F04B
:1015A70090411DE014F080AC90411C12103AE40207
:0215B700014AE7
:06125D0090411F120FF783
:10126300E4904124F0A3F090411F120FEFF9EA49F3
:101273004B606B90411FA3A3120104FF6060121B1C
:101283002E505B90411F1210173395E0FEEF24D0D0
:10129300FFEE34FF904122F0A3EFF0D3E0940990E6
:1012A3004122E09400400CA3E024F9F0904122E0B5
:1012B30034FFF0904125E0C4F8540FC868FF904113
:1012C30024E0C454F048FEF0A3EFF0904123E0542F
:1012D3000FFDEF4DFFA3EEF0A3EFF002126A904172
:0612E30024E0FEA3E0FF81
:0112E90022E2
:101B7600904132120FF7121BEB904132120FEFF920
:101B8600120104600B904132121019121CC280E936
:011B9600222C
:101BD0001201046015121CB740FB12010490FF8033
:0B1BE000F0740129F9E43AFA80E622D3
:091376009040E5EFF0A3120FF71F
:0F137F00121C489040E9EFF0D364809490503BEB
:10138E009040E5E0FF7D01121BEBE49040EAF07F18
:10139E0020121CC29040EA12106C949040F19040C2
:1013AE00E5E0FF9040E9E0FEC374109EFEA2E71355
:0913BE0004FD9040E6120FEFF966
:0213C700803371
:1013C9009040E6E0F9A3E0FAA3E09040FEC9120FCD
:1013D900F8A3E4F0A37410F07B017A4079EA1215BE
:1013E900B9E49040FAF09040E5E0FF7B017A40795A
:0613F900EA7D01121B76E3
:0113FF0022CB
:101BB400904135120FF77F01121ADF904135120F51
:0C1BC400EF2410F9E43AFA7F02021ADF65
:06187200904126120FF761
:10187800E4A3F0904129E0FFC3648094905031EFD5
:101888007F01120FE712103812011DFF121CC290BF
:101898004129E07F02120FE72410F9E43AFA121006
:1018A8002A120104FF121CC2904129E004F080C3EF
:0118B800220D
:0617860090412A120FF74A
:10178C00A37410F090412DE0FDD364809480402D23
:10179C007F01121BEB90412A120FEF12102990FFC0
:1017AC00FF1217CAFD7F02121BEB90412A120FEF9A
:0D17BC0012102990000F1217CA14F080C7F8
:0D17C9002212011DFF121CC290412DE022D2
:101A81009041397401F0904139E0FDC36480949133
:101A9100500F7F01121AA3FD7F02121AA304F080D6
:011AA100E55F
:0E1AA20022121BEB7FFF121CC2904139E02282
:101AB00090413A7410F090413AE0FDD364809480F4
:101AC000400F7F01121AD2FD7F02121AD214F08049
:011AD000E530
:0E1AD10022121BEB7FFF121CC290413AE02252
:061ADF0090412E120FF7EA
:101AE5007D01121BEB121CB740FBE4904131F090D5
:101AF500412E121017121CC290413112106C949095
:021B050040EDB1
:011B070022BB
:0C1C8800121CB740FB90FF007410F0220B
:0C1C9400121CB740FB90FF007414F022FB
:061A22009040D1120FF705
:101A2800121CB740FBEF33333354F8244090FF00C7
:101A3800F0E49040D4F09040D1121017121CC290DC
:091A480040D412106C948840EDAA
:011A51002272
:0B1CC200121CB740FB90FF80EFF022E7
:101B9700121C707BFF7A1C795D7D017F01121B7619
:0D1BA7007BFF7A1C796A7D017F02021B76AC
:0C1CA00045726F617265206C61203A0093
:05000300E590541FFF11
:0100080022D5
:101C32009040DFEFF07BFF7A1C79A0121BD090401E
:061C4200DFE0FF021CC2FE
:1019BC00C2AFEFC394407480949F4028121C32E451
:1019CC009040DEF09040DEE0FFE4FCFDFE7B507AC0
:1019DC00C3F9F8C312025040089040DEE004F080D6
:0419EC00E3120009F9
:0119F00022D4
:101B5400496E697420534B43414E202D20446F6ECF
:101B64006500496E6974204D434F202D20446F6EEB
:021B740065000A
:101B0800120E347BFF7A1B7954121BD07F7D7E0026
:101B18001211CA1214E07BFF7A1B7966121BD0D20D
:061B2800AF12073680FB3E
:1009AE004300100091010F004F18100004000000CA
:1009BE004318100141534500431810020200010074
:1009CE00431810032000010043181004FFFFFFFF1F
:1009DE004F18200003000000431820014153450129
:1009EE0043182002504F434D4318200320000100AE
:1009FE004F00140002000000430014010702000023
:100A0E004F001402FF0000004F011400020000000E
:100A1E0043011401070300004F011402FF00000000
:100A2E004F0016000400000043001601080100628A
:100A3E004300160208020062430016030803006218
:100A4E0043001604080400624F0116000200000065
:100A5E0043011601100111644301160210021164C4
:100A6E004F001800020000004300180187010040EB
:100A7E004F001802FF0000004B001803000000009A
:100A8E004B001805640000004F0118000200000022
:100A9E0043011801870200404F011802FF000000B9
:100AAE004B011803320000004B01180564000000D2
:100ABE004F001A000400000043001A0108010060F4
:100ACE0043001A020802006043001A030803006084
:100ADE0043001A04080400604F011A0002000000CF
:100AEE0043011A011001016443011A02100201644C
:100AFE004F006000040000004F0062000400000080
:100B0E004F016400020000004F116400020000005B
:100B1E0057FFFFFFFFFFFFFF6000011100600002A3
:100B2E00110160000311026000041103640101123F
:100B3E0004640102120662000131086200023109EA
:100B4E00620003310A620004310B641101320C643D
:090B5E001102320EFFFFFFFFFF40
:041CD600EF0219BC44
:0100090022D4
:1014E000C2AF7F107808E4F608DFFC7BE87A037D62
:1014F000017F7D7E00120F089040D37408F07B04BA
:101500007D017C007F0112107B9040D3740CF07B36
:10151000047D027C007F0212107BE49040D4F0A393
:10152000F0A37404F0E4A3F07B64FAFDFC7F0112E5
:101530000C759040D4E4F0A3740AF0A37404F0A3F3
:0D154000F07BFA7A00E4FDFC7F02020C75DE
:030000000212EAFF
:0C12EA00787FE4F6D8FD75811E021331F8
:10000E00E709F608DFFA8046E709F208DFFA803ED4
:10001E0088828C83E709F0A3DFFA8032E309F608C1
:10002E00DFFA8078E309F208DFFA807088828C8329
:10003E00E309F0A3DFFA806489828A83E0A3F608DD
:10004E00DFFA805889828A83E0A3F208DFFA804CB7
:10005E0080D280FA80C680D4806980F2803380108E
:10006E0080A680EA809A80A880DA80E280CA8033F7
:10007E0089828A83ECFAE493A3C8C582C8CCC5836F
:10008E00CCF0A3C8C582C8CCC583CCDFE9DEE7803F
:10009E000D89828A83E493A3F608DFF9ECFAA9F0BE
:1000AE00EDFB2289828A83ECFAE0A3C8C582C8CC14
:1000BE00C583CCF0A3C8C582C8CCC583CCDFEADE2D
:1000CE00E880DB89828A83E493A3F208DFF980CC8F
:1000DE0088F0EF60010E4E60C388F0ED2402B40488
:1000EE000050B9F582EB2402B4040050AF2323452F
:0600FE00822390005E73F6
:10010400BB010689828A83E0225002E722BBFE02F9
:09011400E32289828A83E493222C
:10011D00BB010CE58229F582E5833AF583E0225097
:10012D0006E92582F8E622BBFE06E92582F8E222E1
:0D013D00E58229F582E5833AF583E49322FB
:10014A00F8BB010DE58229F582E5833AF583E8F0EB
:10015A00225006E92582C8F622BBFE05E92582C897
:02016A00F2227F
:10016C00A3F8E0C5F025F0F0E58215827002158346
:06017C00E0C838F0E822A3
:1001820075F008758200EF2FFFEE33FECD33CDCC34
:1001920033CCC58233C5829BED9AEC99E5829840B7
:1001A2000CF582EE9BFEED9AFDEC99FC0FD5F0D694
:1001B200E4CEFBE4CDFAE4CCF9A88222B800C1B9BE
:1001C2000059BA002DEC8BF084CFCECDFCE5F0CBFC
:1001D200F97818EF2FFFEE33FEED33FDEC33FCEB35
:1001E20033FB10D703994004EB99FB0FD8E5E4F9F0
:1001F200FA227818EF2FFFEE33FEED33FDEC33FCDD
:10020200C933C910D7059BE99A4007EC9BFCE99AD0
:10021200F90FD8E0E4C9FAE4CCFB2275F010EF2F15
:10022200FFEE33FEED33FDCC33CCC833C810D70715
:100232009BEC9AE899400AED9BFDEC9AFCE899F850
:0E0242000FD5F0DAE4CDFBE4CCFAE4C8F922E3
:10025000EB9FF5F0EA9E42F0E99D42F0EC6480C825
:0602600064809845F022C5
:10026600EB9FF5F0EA9E42F0E99D42F0E89C45F0EE
:010276002265
:10027700E8600FECC313FCED13FDEE13FEEF13FF65
:03028700D8F12289
:10028A00E8600FEFC333FFEE33FEED33FDEC33FCD2
:03029A00D8F12276
:0C029D00ECF0A3EDF0A3EEF0A3EFF022D4
:1002A900A8828583F0D083D0821202C01202C012C4
:1002B90002C01202C0E473E493A3C583C5F0C583E9
:1002C900C8C582C8F0A3C583C5F0C583C8C582C89F
:0102D9002202
:101B2E00EFC394414005EF94474016EFC3946140D4
:101B3E0005EF9467400BEFC394304008EF943A5092
:061B4E0003D38001C32255
:1015B9009040FBEBF0A3EAF0A3E9F0E4904103F0DB
:1015C900A3F090410174FFF5F012016C45F0603C05
:1015D9009040FEE0FBA3E0FAA3E0F9120104FF90BA
:1015E90040FBE0FBA3E0FAA3E0F9904103E475F0C6
:1015F9000112016C85F082F583EF12014AEF60C296
:101609009040FFE475F00112048480B69040FBE03D
:08161900FBA3E0FAA3E0F922B3
:101C4800E4FFFE120104600C0FEF70010E09E97049
:051C5800F20A80EF22FA
:1002DA00E3F5F009E208B5F06BDFF58067E3F5F0C6
:1002EA0009E608B5F05EDFF5805A87F009E608B539
:1002FA00F052DFF6804E87F009E208B5F046DFF6E5
:10030A00804288828C8387F009E0A3B5F036DFF655
:10031A00803288828C8387F009E493A3B5F025DFC5
:10032A00F5802188828C83E3F5F009E0A3B5F01407
:10033A00DFF5801088828C83E3F5F009E493A3B596
:10034A00F002DFF4020409808780E9809080D4807B
:10035A003E8015806E807E809D80B7808D80A380D0
:10036A00518074803C02041589828A83ECFAE493F2
:10037A00F5F0A3C8C582C8CCC583CCE493A3C8C58D
:10038A0082C8CCC583CCB5F076DFE3DEE180708924
:10039A00828A83E493F5F0A3E208B5F062DFF48081
:1003AA005E89828A83E0F5F0A3E608B5F051DFF5AD
:1003BA00804D89828A83E0F5F0A3E208B5F040DF38
:1003CA00F5803C89828A83E493F5F0A3E608B5F0C8
:1003DA002EDFF4802A8002805789828A83ECFAE42D
:1003EA0093F5F0A3C8C582C8CCC583CCE0A3C8C521
:1003FA0082C8CCC583CCB5F006DFE4DEE280007F9C
:10040A00FFB5F0020F2240027F012289828A83EC23
:10041A00FAE0F5F0A3C8C582C8CCC583CCE0A3C86E
:10042A00C582C8CCC583CCB5F0D5DFE5DEE380CF85
:10043A0089828A83ECFAE0F5F0A3C8C582C8CCC5E4
:10044A0083CCE493A3C8C582C8CCC583CCB5F0AF2E
:10045A00DFE4DEE280A988F0EF60010E4E60ABEDCA
:10046A002402B404005098F582EB2402B40400502C
:0A047A008E23234582239003517363
:1012F600021B08E493A3F8E493A34003F68001F2EB
:1013060008DFF48029E493A3F85407240CC8C333F8
:10131600C4540F4420C8834004F456800146F6DFC7
:10132600E4800B0102040810204080901123E47E23
:10133600019360BCA3FF543F30E509541FFEE493BC
:10134600A360010ECF54C025E060A840B8E493A383
:10135600FAE493A3F8E493A3C8C582C8CAC583CAAE
:10136600F0A3C8C582C8CAC583CADFE9DEE780BE66
:0111C9000025
:10048400C5F0F8A3E028F0C5F0F8E5821582700203
:060494001583E038F022A0
:00000001FF
